{
  "contractName": "EthSwap",
  "abi": [
    {
      "inputs": [
        {
          "internalType": "contract BEP20Token",
          "name": "_token",
          "type": "address"
        },
        {
          "internalType": "uint256",
          "name": "_rate",
          "type": "uint256"
        }
      ],
      "payable": false,
      "stateMutability": "nonpayable",
      "type": "constructor"
    },
    {
      "anonymous": false,
      "inputs": [
        {
          "indexed": false,
          "internalType": "address",
          "name": "account",
          "type": "address"
        },
        {
          "indexed": false,
          "internalType": "address",
          "name": "token",
          "type": "address"
        },
        {
          "indexed": false,
          "internalType": "uint256",
          "name": "amount",
          "type": "uint256"
        },
        {
          "indexed": false,
          "internalType": "uint256",
          "name": "rate",
          "type": "uint256"
        }
      ],
      "name": "TokensPurchased",
      "type": "event"
    },
    {
      "constant": true,
      "inputs": [],
      "name": "name",
      "outputs": [
        {
          "internalType": "string",
          "name": "",
          "type": "string"
        }
      ],
      "payable": false,
      "stateMutability": "view",
      "type": "function"
    },
    {
      "constant": true,
      "inputs": [],
      "name": "rate",
      "outputs": [
        {
          "internalType": "uint256",
          "name": "",
          "type": "uint256"
        }
      ],
      "payable": false,
      "stateMutability": "view",
      "type": "function"
    },
    {
      "constant": true,
      "inputs": [],
      "name": "token",
      "outputs": [
        {
          "internalType": "contract BEP20Token",
          "name": "",
          "type": "address"
        }
      ],
      "payable": false,
      "stateMutability": "view",
      "type": "function"
    },
    {
      "constant": false,
      "inputs": [],
      "name": "buyTokens",
      "outputs": [],
      "payable": true,
      "stateMutability": "payable",
      "type": "function"
    },
    {
      "constant": false,
      "inputs": [],
      "name": "endSale",
      "outputs": [],
      "payable": false,
      "stateMutability": "nonpayable",
      "type": "function"
    }
  ],
  "bytecode": "0x60806040526040518060400160405280601781526020017f42697448697420496e7374616e742045786368616e67650000000000000000008152506000908051906020019061004f92919061012a565b5034801561005c57600080fd5b50604051610a2e380380610a2e8339818101604052604081101561007f57600080fd5b81019080805190602001909291908051906020019092919050505081600160006101000a81548173ffffffffffffffffffffffffffffffffffffffff021916908373ffffffffffffffffffffffffffffffffffffffff1602179055508060028190555033600360006101000a81548173ffffffffffffffffffffffffffffffffffffffff021916908373ffffffffffffffffffffffffffffffffffffffff16021790555050506101cf565b828054600181600116156101000203166002900490600052602060002090601f016020900481019282601f1061016b57805160ff1916838001178555610199565b82800160010185558215610199579182015b8281111561019857825182559160200191906001019061017d565b5b5090506101a691906101aa565b5090565b6101cc91905b808211156101c85760008160009055506001016101b0565b5090565b90565b610850806101de6000396000f3fe60806040526004361061004a5760003560e01c806306fdde031461004f5780632c4e722e146100df578063380d831b1461010a578063d0febe4c14610121578063fc0c546a1461012b575b600080fd5b34801561005b57600080fd5b50610064610182565b6040518080602001828103825283818151815260200191508051906020019080838360005b838110156100a4578082015181840152602081019050610089565b50505050905090810190601f1680156100d15780820380516001836020036101000a031916815260200191505b509250505060405180910390f35b3480156100eb57600080fd5b506100f4610220565b6040518082815260200191505060405180910390f35b34801561011657600080fd5b5061011f610226565b005b610129610553565b005b34801561013757600080fd5b506101406107f5565b604051808273ffffffffffffffffffffffffffffffffffffffff1673ffffffffffffffffffffffffffffffffffffffff16815260200191505060405180910390f35b60008054600181600116156101000203166002900480601f0160208091040260200160405190810160405280929190818152602001828054600181600116156101000203166002900480156102185780601f106101ed57610100808354040283529160200191610218565b820191906000526020600020905b8154815290600101906020018083116101fb57829003601f168201915b505050505081565b60025481565b600360009054906101000a900473ffffffffffffffffffffffffffffffffffffffff1673ffffffffffffffffffffffffffffffffffffffff163373ffffffffffffffffffffffffffffffffffffffff16146102e9576040517f08c379a000000000000000000000000000000000000000000000000000000000815260040180806020018281038252601d8152602001807f6f6e6c792061646d696e2063616e20656e6420746f6b656e2073616c6500000081525060200191505060405180910390fd5b600160009054906101000a900473ffffffffffffffffffffffffffffffffffffffff1673ffffffffffffffffffffffffffffffffffffffff1663a9059cbb600360009054906101000a900473ffffffffffffffffffffffffffffffffffffffff16600160009054906101000a900473ffffffffffffffffffffffffffffffffffffffff1673ffffffffffffffffffffffffffffffffffffffff166370a08231306040518263ffffffff1660e01b8152600401808273ffffffffffffffffffffffffffffffffffffffff1673ffffffffffffffffffffffffffffffffffffffff16815260200191505060206040518083038186803b1580156103e957600080fd5b505afa1580156103fd573d6000803e3d6000fd5b505050506040513d602081101561041357600080fd5b81019080805190602001909291905050506040518363ffffffff1660e01b8152600401808373ffffffffffffffffffffffffffffffffffffffff1673ffffffffffffffffffffffffffffffffffffffff16815260200182815260200192505050602060405180830381600087803b15801561048d57600080fd5b505af11580156104a1573d6000803e3d6000fd5b505050506040513d60208110156104b757600080fd5b810190808051906020019092919050505061053a576040517f08c379a00000000000000000000000000000000000000000000000000000000081526004018080602001828103825260188152602001807f62616c616e6365206e6f74207472616e7366657272696e67000000000000000081525060200191505060405180910390fd5b3373ffffffffffffffffffffffffffffffffffffffff16ff5b60006002543402905080600160009054906101000a900473ffffffffffffffffffffffffffffffffffffffff1673ffffffffffffffffffffffffffffffffffffffff166370a08231306040518263ffffffff1660e01b8152600401808273ffffffffffffffffffffffffffffffffffffffff1673ffffffffffffffffffffffffffffffffffffffff16815260200191505060206040518083038186803b1580156105fc57600080fd5b505afa158015610610573d6000803e3d6000fd5b505050506040513d602081101561062657600080fd5b8101908080519060200190929190505050101561064257600080fd5b600160009054906101000a900473ffffffffffffffffffffffffffffffffffffffff1673ffffffffffffffffffffffffffffffffffffffff1663a9059cbb33836040518363ffffffff1660e01b8152600401808373ffffffffffffffffffffffffffffffffffffffff1673ffffffffffffffffffffffffffffffffffffffff16815260200182815260200192505050602060405180830381600087803b1580156106eb57600080fd5b505af11580156106ff573d6000803e3d6000fd5b505050506040513d602081101561071557600080fd5b8101908080519060200190929190505050507f6faf93231a456e552dbc9961f58d9713ee4f2e69d15f1975b050ef0911053a7b33600160009054906101000a900473ffffffffffffffffffffffffffffffffffffffff1683600254604051808573ffffffffffffffffffffffffffffffffffffffff1673ffffffffffffffffffffffffffffffffffffffff1681526020018473ffffffffffffffffffffffffffffffffffffffff1673ffffffffffffffffffffffffffffffffffffffff16815260200183815260200182815260200194505050505060405180910390a150565b600160009054906101000a900473ffffffffffffffffffffffffffffffffffffffff168156fea265627a7a72315820df9081cb32dc52cc667b613747499252621df53ac5525e0feea8987c9d59055064736f6c63430005110032",
  "source": "// SPDX-License-Identifier: unlicense\npragma solidity ^0.5.17;\n\nimport \"./BEP20Token.sol\";\n\ncontract EthSwap {\n\n  string public name = \"BitHit Instant Exchange\";\n  BEP20Token public token;\n  uint public rate;\n  address admin;\n\n  event TokensPurchased(\n    address account,\n    address token,\n    uint amount,\n    uint rate\n  );\n\n  constructor(BEP20Token _token, uint _rate) public {\n    token = _token;\n    rate = _rate;\n    admin = msg.sender;\n  }\n\n  function buyTokens() public payable {\n    // Calculate the number of tokens to buy\n    uint tokenAmount = msg.value * rate;\n\n    // Require that EthSwap has enough tokens\n    require(token.balanceOf(address(this)) >= tokenAmount);\n\n    // Transfer tokens to the user\n    token.transfer(msg.sender, tokenAmount);\n\n    // Emit an event\n    emit TokensPurchased(msg.sender, address(token), tokenAmount, rate);\n  }\n  \n  // Ending TokenSale\n    function endSale() public {\n    // Require admin\n    require(msg.sender == admin,'only admin can end token sale');\n    require(token.transfer(admin,token.balanceOf(address(this))),'balance not transferring');\n    selfdestruct(msg.sender);\n    // Transfer remaining tokens to admin\n    // Destroy contract\n\n    }\n\n}\n",
  "sourcePath": "C:/Users/Wizz/art_project/art_hit/src/contracts/EthSwap.sol",
  "compiler": {
    "name": "solc",
    "version": "0.5.17+commit.d19bba13.Emscripten.clang"
  },
  "schemaVersion": "3.4.1",
  "updatedAt": "2021-06-08T08:54:09.573Z",
  "networkType": "ethereum",
  "devdoc": {
    "methods": {}
  },
  "userdoc": {
    "methods": {}
  }
}